:020000040800F2
:100000005006002001010008971700089F150008FE
:10001000951700088F03000809220008000000005F
:10002000000000000000000000000000D11D0008DA
:100030009103000800000000191D0008D31D0008EE
:100040001B0100081B0100081B0100081B01000820
:100050001B0100081B0100081B0100081B01000810
:100060001B0100081B0100081B0100081B01000800
:100070001B0100081B0100081B0100081B010008F0
:100080001B0100081B0100081B0100081B010008E0
:100090001B0100081B0100081B0100081B010008D0
:1000A0001B0100081B0100081B0100081B010008C0
:1000B0001B0100081B0100081B0100081B010008B0
:1000C0001B0100081B0100081B0100081B010008A0
:1000D0001B0100081B0100081B0100081B01000890
:1000E0001B0100081B0100081B010008DFF80CD0F1
:1000F00000F0CAF800480047C92600085006002052
:100100000648804706480047FEE7FEE7FEE7FEE7B1
:10011000FEE7FEE7FEE7FEE7FEE7FEE7251E000836
:10012000ED000008202A04DB203A21FA02F0002129
:10013000704721FA02F3D040C2F1200291400843F7
:100140001946704740EA01039B0703D009E008C93C
:10015000121F08C0042AFAD203E011F8013B00F88C
:10016000013B521EF9D27047D2B201E000F8012BD8
:10017000491EFBD270470022F6E710B513460A4627
:1001800004461946FFF7F0FF204610BD421C10F848
:10019000011B0029FBD1801A704770B5064602F09A
:1001A00049F8046805460A220021304600F033F879
:1001B0002C6070BD2DE9F05F0546002092469B46FD
:1001C00088460646814640241BE02846414647466D
:1001D0002246FFF7A7FF53465A46C01A914110D353
:1001E00011461846224600F061F82D1A67EB010807
:1001F0004F4622460120002100F058F817EB000975
:100200004E41201EA4F10104DFDC484631462A4657
:100210004346BDE8F09F2DE9F04791460F468046E2
:100220000446002614F8015B2DB100F04FF8006879
:10023000405DC007F6D12B2D02D02D2D18D0641EA5
:100240004A463946204600F045F827B13968A142B0
:1002500001D1C7F8008071054FF002040BD5404270
:10026000002803DD01F0E6FF0460A007BDE8F08789
:1002700046F48066E4E70028F8DA01F0DBFF04606A
:100280006FF00040F2E70000064C074D06E0E06822
:1002900040F0010394E8070098471034AC42F6D3CD
:1002A000FFF728FF0833000828330008202A04DB62
:1002B000203A00FA02F1002070479140C2F1200379
:1002C00020FA03F31943904070470000004870473C
:1002D000283200082DE9F05F824600780027154695
:1002E0008B460AF10104B946302801D09DB113E0D4
:1002F00014F8010B0127782803D0582801D045B104
:100300000AE00DB1102D07D10027102514F8010BBC
:1003100002E0082500E00A250026B0460EE005FBB5
:10032000080005FB06F1012701EB10461FFA80F8D3
:10033000B6F5803F00D3B94614F8010B294600F00A
:1003400018F80028EBDABBF1000F05D00FB1641EDE
:1003500000E05446CBF80040B9F1000F06D001F0A0
:1003600069FF02210160C81EBDE8F09F48EA06400F
:10037000FAE73A2800D2303820F02002412A01D38F
:10038000A2F13700884201D34FF0FF307047FEE7FB
:100390007047000070B5044600F0F2F80546601C96
:1003A00002D004480078044400F0EAF8401BA04260
:1003B000FAD370BD880000202DE9F84FDFF890A136
:1003C00000220AF1040B144601274FF00F090BF12C
:1003D000040E00BF0B6807FA04F52B40AB4274D142
:1003E000DFF870C14E68A6EB0C0866452BD00DDC1B
:1003F000032E34D005DC36B3012E19D0022E2FD1B6
:100400001BE0112E16D0122E2AD119E0B8F5881F44
:1004100019D006DCB8F5803F15D0B8F5801F1FD184
:1004200011E0B8F5001F0ED0B8F5041F18D10AE08E
:10043000CA6815E0CA68121D12E0CA6808320FE0E7
:10044000CA680C320CE08A682AB1012A4FF008020F
:1004500003D0456104E0042202E0056100E00022CF
:10046000FF2B01D8064601E000F104064FEA84059F
:1004700001D9A5F12005D6F800C009FA05F82CEA43
:10048000080C02FA05F54CEA050CC6F800C04D68E8
:10049000ED0057D5304DAE6946F00106AE61AD694D
:1004A00024F0030605F0010500952C4D06EB050C24
:1004B000DCF80850A6074FEA167809FA08F6B543A3
:1004C000274EB04202D1002610E03BE0254EB0425C
:1004D00001D101260AE0244EB04201D1022605E0F6
:1004E000224EB04201D1032600E0042606FA08F6A7
:1004F0002E43CCF808604D68DAF80060ED035546ED
:1005000001D51E4300E09E432E604D68DBF800607D
:10051000AD035D4601D51E4300E09E432E604D684D
:10052000DEF80060ED02754601D51E4300E09E43F3
:100530002E604D68AD020E4D2E6801D51E4300E0C1
:100540009E432E60641C102CFFF444AFBDE8F88F6E
:1005500000040140000011100010024000000140A2
:1005600000080140000C014000100140001401404F
:100570000C0401400AB1016170470904FBE7000067
:1005800001488068704700008800002002488168A8
:10059000027811448160704788000020074810B538
:1005A000016841F010010160032000F067F80020AD
:1005B00000F006F800F024F8002010BD00200240F2
:1005C00070B50D4D04464FF47A712878B1FBF0F008
:1005D0000A490968B1FBF0F000F0B2FD48B9102CEF
:1005E00007D200222146501E00F028F800206C603F
:1005F00070BD012070BD0000880000209400002024
:100600000C4808B5816941F001018161816901F0FF
:1006100001010091C16941F08051C161C06900F0E0
:10062000805000900448416821F0E06141F0806111
:10063000416008BD0010024000000140F0B40E4BC4
:100640001B680C46C3F30223C3F10705042D00D930
:100650000425191D072901D2002300E0DB1E012615
:1006600006FA05F1491E214099409E40761E16402B
:100670003143F0BC01F040BB0CED00E0064900F056
:10068000070208684FF6FF03184040EA0220034AB9
:1006900010430860704700000CED00E00000FA0510
:1006A0002DE9F047DFF8548105460E46D8F80000E2
:1006B00000F00700B0420CD2D8F8001021F007017A
:1006C0003143C8F80010D8F8000000F00700B0422D
:1006D0006FD128684A4C810712D5400703D560685E
:1006E00040F4E06060602878000703D5606840F45B
:1006F000605060606068A96820F0F00008436060A6
:100700002878C00744D06868012816D021680228DC
:1007100016D0890700294CDA616821F003010143F2
:100720006160FFF72DFF6968074641F288300129B3
:100730000ED00229814618D026E021688903E9E716
:100740008901E7E7FFF71CFFC11B494501D918E004
:1007500081466068C0F381000128F3D118E000BF32
:10076000FFF70EFFC11B49450BD86068C0F381003D
:100770000228F5D10CE000BFFFF702FFC11B49457D
:1007800002D90320BDE8F087606810F00C0FF3D1A8
:10079000D8F80010404601F00701B1420BD90168BA
:1007A00021F0070131430160006800F00700B0420A
:1007B00001D00120E6E72878400705D56068E968A0
:1007C00020F4E060084360602878000706D5606880
:1007D000296920F4605040EAC100606000F036F8FA
:1007E0006168084AC1F30311515CC84006490860BA
:1007F0000020FFF7E5FE0020C4E7000000200240D3
:10080000001002408D310008940000200448054982
:1008100000684968044AC1F30221515CC84070472E
:1008200094000020001002409D3100080448054952
:1008300000684968044AC1F3C221515CC84070474E
:1008400094000020001002409D31000812A185B0E4
:100850000FC98DE80F0014A0144A00680490516875
:10086000134801F00C03042B10D0082B0ED1C1F358
:100870008343C9031DF803000AD5516804AAC1F3D4
:100880004041515C0A4A5043B0FBF1F005B070475B
:1008900008494843FAE7000002030405060708096F
:1008A0000A0B0C0D0E0F1010010200000010024088
:1008B00000127A0000093D002DE9F84F0446007847
:1008C000B94DC00748D06868C0F38100012807D03F
:1008D0006868C0F38100022809D16868C00306D5A2
:1008E0002868800338D5606800286FD034E06068DD
:1008F000B0F5803F0BD010B1B0F5A02F11D0286813
:1009000020F480302860286820F4802002E02868E5
:1009100040F480302860606888B1FFF731FE0646F9
:1009200009E0286840F480202860F0E7FFF728FEFF
:10093000801B642875D828688003F7D50CE0FFF782
:100940001FFE064605E000BFFFF71AFE801B642865
:10095000F0D828688003F7D42078944E80074FF0B1
:1009600001094FF000083BD5686810F00C0F07D064
:100970006868C0F38100022809D16868C00306D402
:100980002868800714D5206901281FD110E020694C
:10099000B0B1C6F80090FFF7F3FD074605E000BFD1
:1009A000FFF7EEFDC01B0228C4D828688007F7D5E2
:1009B0002868616920F0F80040EAC10028600FE073
:1009C000C6F80080FFF7DCFD074606E0E9E000BF5F
:1009D000FFF7D6FDC01B022823D828688007F7D46C
:1009E000207800072CD57248A169D9B1C0F80090D1
:1009F000FFF7C6FD074604E0FFF7C2FDC01B022853
:100A00000FD8686A8007F7D56A484FF4FA51006832
:100A1000B0FBF1F0009000BF0098411E0091FAD2A7
:100A20000EE080E0C0F80080FFF7AAFD074604E072
:100A3000FFF7A6FDC01B022875D8686A8007F7D4A7
:100A40002078400760D5E8690027C00008D4E8692D
:100A500040F08050E861E869012700F08050009084
:100A600055480168C90513D40168834641F4807173
:100A70000160FFF785FD824606E000BFFFF780FDBD
:100A8000A0EB0A0064284ED8DBF80000C005F5D5BD
:100A9000E06801280AD008B1052813D0286A20F0A0
:100AA00001002862286A20F0040002E0286A40F071
:100AB00001002862E06841F2883B98B1FFF760FDD1
:100AC00082460BE0286A40F004002862EEE700BF8F
:100AD000FFF756FDA0EB0A0159455AD8286A80074E
:100AE000F6D50CE0FFF74CFD824605E0FFF748FD28
:100AF000A0EB0A0159454CD8286A8007F6D41FB1EB
:100B0000E86920F08050E861E06988B36968C1F362
:100B10008101022945D00228C6F8608004D0FFF781
:100B20002FFD044638E034E0FFF72AFD074604E0D5
:100B3000FFF726FDC01B02282BD828688001F7D4B8
:100B4000206AB0F5803F05D16868A16820F40030C4
:100B500008436860D4E908010843696821F4741106
:100B600008436860C6F86090FFF70AFD044606E097
:100B700015E000BFFFF704FD001B022809D8286814
:100B80008001F7D50BE000BFFFF7FAFC001B02283D
:100B900002D90320BDE8F88F28688001F4D4002032
:100BA000F8E70120F6E70000001002400000424292
:100BB00080044242940000200070004070B50400A0
:100BC00005D00025A56294F8510010B104E0012081
:100BD00070BD204600F034F8022084F851002068EF
:100BE000016821F040010160D4E901010843D4E922
:100BF00003121143084361690843218B01F400711A
:100C00000843E1690843216A0843A16A084321684F
:100C10000860A069042101EA1040616A0843216864
:100C200048602168E06A08612068C16921F40061B8
:100C3000C1616565012084F85100002070BD00008D
:100C400030B585B0002400940194029403940068A8
:100C50001449884223D11448816941F4805181614B
:100C6000816901F480510491816941F0040181613D
:100C700080690E4D00F004000490A0200090022036
:100C800001900320039069462846FFF795FB40201A
:100C9000CDE90004694628460294FFF78DFB05B0B4
:100CA00030BD00000030014000100240000801404B
:100CB0002DE9F84F044640680026984617460D4631
:100CC0004FF00409B0F5827F01D1A06890B194F88B
:100CD0005000012819D04FF0010B84F850B0FFF7F5
:100CE0004FFC009094F851004FF0000A01280ED0FC
:100CF00002267FE084F8519013460A462046CDF83C
:100D0000008000F031F9BDE8F88F0220FBE7002DEC
:100D10006FD0002F6DD084F85190C4F854A0A56313
:100D2000A787E787C4F830A0A4F834A0A4F836A0B9
:100D3000C4F840A0C4F844A0A0684FF40047B842EB
:100D400004D12068016821F48041016020680168B5
:100D5000490603D4016841F040010160E068B8B180
:100D600033E020688168C90706D0007B05F8010BD5
:100D7000E08F401EE0870BE0B8F1000F23D0B8F100
:100D8000FF3F05D0FFF7FCFB0099411A41451AD2FD
:100D9000E08F0028E5D11BE020688168C90706D0F4
:100DA000C06825F8020BE08F401EE0870DE0B8F127
:100DB000000F08D0B8F1FF3F07D0FFF7E1FB009923
:100DC000411A414501D3032614E0E08F0028E3D106
:100DD0006068B0F5827F0AD1A068B84202D0B0F551
:100DE000806F04D12068016821F040010160606DCE
:100DF00000B1012684F851B084F850A0304682E753
:100E00002DE9F84F044690F8500000269946174601
:100E10000D4601280DD04FF0010B84F850B0FFF7BC
:100E2000AFFB804694F85100B246012804D0022658
:100E300094E00220BDE8F88F002D7BD0002F79D000
:100E4000032084F85100C4F854A02563A786E786E0
:100E5000C4F838A0A4F83CA0A4F83EA0C4F844A06C
:100E6000C4F840A0A068B0F5004F04D12068016824
:100E700041F48041016020680168490603D401689B
:100E800041F040010160E068B0F5006F606804D097
:100E900030B3E08E012823D03EE010B1E08E01286F
:100EA0001AD135F8021B206805E02068816889079F
:100EB00006D535F8021BC160E08E401EE0860BE0CF
:100EC000B9F1000F34D0B9F1FF3F05D0FFF758FB5F
:100ED000A0EB080149452BD2E08E0028E5D11EE0A9
:100EE000216815F8010B087306E0206881688907FE
:100EF00006D515F8011B0173E08E401EE0860BE05D
:100F0000B9F1000F14D0B9F1FF3F05D0FFF738FB5E
:100F1000A0EB080149450BD2E08E0028E5D14B46F5
:100F2000012202212046CDF8008000F006FF10B11A
:100F3000032613E011E042464946204600F0EDFE4C
:100F400018B101262020606508E0A06818B9206863
:100F5000C16880680090606D00B1012684F851B0CE
:100F600084F850A0304665E72DE9F84F044690F824
:100F7000500000260A9F9A4693460D464FF00108FE
:100F800001280ED0012084F85000FFF7F9FA8146BD
:100F900094F85100616801280CD0B1F5827F07D127
:100FA00002E00220BDE8F88FA16809B9042801D049
:100FB0000226BDE055B1BBF1000F07D0BAF1000F1A
:100FC00004D094F85100012802D004E00126AFE0DB
:100FD000052084F8510000206065C4F838B0A4F8FA
:100FE0003EA0A4F83CA02563A4F836A0A4F834A041
:100FF0002064606420680168490603D4016841F0F8
:1010000040010160E068B0F5006F606804D0E8B3AB
:10101000E08E01283BD06AE010B1E08E01282ED18D
:10102000216835F8020BC860E08E401EE08626E09D
:10103000B8F1000F0DD0E08E58B1206881688907A3
:1010400007D535F8021BC160E08E401EE0864FF0E8
:101050000008E08F58B120688168C90707D0C068D0
:101060002BF8020BE08F401EE0874FF00108781C40
:1010700005D0FFF785FAA0EB0900B84246D2E08E12
:101080000028D5D1E08F0028D2D136E0FFE72168D3
:1010900015F8010B0873E08E401EE08627E000BFC4
:1010A000B8F1000F0DD0E08E58B120688168890733
:1010B00007D515F8011B0173E08E401EE0864FF046
:1010C0000008E08F58B120688168C90707D0C06860
:1010D0000BF8010BE08F401EE0874FF00108781CF1
:1010E00005D0FFF74DFAA0EB0900B8420ED2E08E12
:1010F0000028D5D1E08F0028D2D13B460122022121
:101100002046CDF8009000F018FE08B103260FE04D
:101110004A463946204600F000FE18B1012620203C
:10112000606505E0A06818B92068C1688068009013
:10113000012084F85100002084F85000304631E747
:1011400010B5401EB0F1807F01D3012010BD4FF0DB
:10115000E02460610F21601700F0CEFD0020A06147
:1011600007202061002010BD10B590F83C20012A16
:1011700025D0012280F83C20CA688C6822F4407295
:1011800022434C6822F4806222430C6822F40062FD
:1011900022430C6922F4805222434C6922F400520B
:1011A00022438C6922F48042224322F400410268E7
:1011B00000232143516480F83C30002010BD022000
:1011C00010BD30B590F83C20012A20D0012280F8D3
:1011D0003C20022380F83D3003685C6824F07004F2
:1011E0005C6003685C680D682C435C6003689C6805
:1011F00024F080049C6003689C6849680C439C60F0
:1012000080F83D20002180F83C10084630BD0220C7
:1012100030BD000010B586B000210091019102910F
:1012200003911A4C03681A4902221A48A34210D1AA
:101230008B6943F004038B618969039201F0040117
:1012400004918115CDE900126946FFF7B5F806B0A3
:1012500010BDB3F1804FFAD18B6943F004038B6169
:101260008969039201F0040104914FF40041CDE932
:1012700000126946FFF7A0F80748416821F4407161
:1012800041F0E06141F480714160E0E7002C0140F1
:1012900000100240000801400000014070B5044603
:1012A00090F83C000D4601280DD0012684F83C60E2
:1012B000022084F83D0042B1042A18D0082A2AD01E
:1012C0000C2A4DD139E0022070BD206800F010FEDC
:1012D0002068816941F0080181612068816921F0FD
:1012E00004018161206881692A69114311E0206845
:1012F00000F026FE2068816941F400618161206868
:10130000816921F480618161206881692A6941EAEB
:101310000221816124E0206800F03EFE2068C1695E
:1013200041F00801C1612068C16921F00401C16177
:101330002068C1692A69114311E0206800F058FE55
:101340002068C16941F40061C1612068C16921F46C
:101350008061C1612068C1692A6941EA0221C161D5
:1013600084F83D60002084F83C0070BD10B5040096
:1013700003D094F83D0010B107E0012010BD00201B
:1013800084F83C00204600F00DF8022084F83D006F
:10139000211D206800F06AFD012084F83D00002036
:1013A00010BD000008B50C4A01680C48914207D1F5
:1013B000816941F400618161806900F4006009E0A5
:1013C000B1F1804F07D1C16941F00101C161C0692C
:1013D00000F00100009008BD002C01400010024008
:1013E00010B504460068012200F076FD0749206828
:1013F000884203D1416C41F4004141642068016896
:1014000041F001010160002010BD0000002C0140EE
:1014100070B5040004D094F83900002510B106E03E
:10142000012070BD84F83850204600F023F82420B5
:1014300084F839002068C16821F40051C160204659
:1014400000F0F8FD2068016921F4904101612068F5
:10145000416921F02A0141612068C16841F40051CD
:10146000C160E563202084F8390084F83A00002048
:1014700070BD000030B585B0002400940194029442
:10148000039400681449884223D11448C16941F487
:101490000031C161C16901F400310491816941F0F9
:1014A0000401816180690E4D00F004000490042065
:1014B0000090022001900320039069462846FEF721
:1014C0007BFF0820CDE90004694628460294FEF718
:1014D00073FF05B030BD0000004400400010024022
:1014E000000801402DE9F843044690F839001F46F2
:1014F00016460D46202850D1A5B19EB194F838006B
:1015000001284AD0012084F838004FF00008C4F8C0
:101510003C80212084F83900FFF732F8A684814608
:10152000E68426E00120BDE8F883E08C401EE084DC
:10153000A0684B46B0F5805F4FF000024FF080018D
:101540002046009703D000F02DFEE8B90DE000F032
:1015500029FEC8B928882168C0F3080048602069BE
:1015600008B16D1C05E0AD1C03E0216815F8010B06
:101570004860E08C0028D8D14B460022402120460C
:10158000009700F00FFE08B10320CCE7202084F87C
:10159000390084F838800020C5E70220C3E7FEE761
:1015A0002DE9F04786B000242D4800940194029460
:1015B0000394816941F010018161816901F010019A
:1015C0000491816941F020018161816901F020016C
:1015D0000491816941F004018161816901F0040194
:1015E0000491816941F0080181618069DFF87480AC
:1015F00000F008004FF400550490002229464046B0
:10160000FEF7B8FFDFF86090002203214846FEF79E
:10161000B1FFDFF858A04FF440770022394650461A
:10162000FEF7A8FF0095022601250396CDE9015497
:1016300069464046FEF7C0FE0320CDE90005CDE92E
:10164000024669464846FEF7B7FE00970396CDE985
:10165000015469465046FEF7AFFE06B0BDE8F0877C
:10166000001002400010014000080140000C014041
:101670000C480B494FF4007201604FF482714160D5
:1016800000218160C1600161C0E905122022C0E92A
:101690000721416281620A21C162FFF78FBA00000F
:1016A000003001403401002010B590B000240E94A9
:1016B0001C2168460F94FEF75EFD1C2107A8FEF76B
:1016C0005AFD1B481949016040F2FF41C0E901146D
:1016D0006321C0E9031444618461FFF747FE0E945F
:1016E0000EA913480F94FFF76CFD6020CDE90004AC
:1016F0000220CDE9020404940594002269460C48B6
:101700000694FFF7CBFD0794089409944FF400501A
:101710000A94CDE90B4007A905480D94FFF724FD75
:101720000348FFF777FD10B010BD0000002C01400A
:101730008C01002010B58AB0002407941C21684653
:101740000894FEF718FD12484FF08041016040F206
:10175000E341C0E9011440F2FE31C0E903148461A1
:10176000FFF704FE079407A909480894FFF729FD2D
:101770006020CDE9000402940022694604480494E4
:10178000FFF78CFD0248FFF745FD0AB010BD0000D1
:10179000CC010020FEE7704708B5002000F0FEF8FD
:1017A00050208DF8000073208DF801006423022280
:1017B00069460348FFF724FB012000F0EFF808BD5D
:1017C0009C0000200020AFF3008070B5054600F0BB
:1017D0000BF90446C0F380166EB115B1C4F3420094
:1017E00028704021072000F051FAA00603D52021DF
:1017F000072000F04BFA304670BD00000FB47CB5F6
:1018000014460D460646582209A95D48FEF79AFC83
:101810005C4B0120DE60DD801C8100F0BFF8002001
:1018200000F0B2F80520FEF7B5FD0821002000F019
:101830002DFA3F21012000F029FA0321022000F0B7
:1018400025FA0321084600F021FA0321042000F0C4
:101850001DFA0221052000F019FA0F21062000F0E0
:1018600015FA0E21072000F011FA0021082000F0DF
:101870000DFA0021092000F009FAE7248DF8034051
:101880008DF802408DF801408DF804408DF800403D
:10189000052269460A2000F011FAC2208DF80300E3
:1018A0008DF802008DF801008DF804008DF800001D
:1018B000052269460B2000F001FAC3210C2000F03C
:1018C000E5F9C4210D2000F0E1F9C5210E2000F05A
:1018D000DDF9C6210F2000F0D9F98DF803408DF80D
:1018E00002408DF801408DF804408DF8004005223B
:1018F0006946102000F0E2F90021112000F0C6F93D
:101900000021122000F0C2F90021132000F0BEF9DE
:101910000021142000F0BAF90021152000F0B6F9DA
:101920000021162000F0B2F9FFF736FF00211C203D
:1019300000F0ACF900211D2000F0A8F901F038F802
:101940000F21084600F078F9032000F04FF901203C
:1019500000F01EF9022000F000F900F029F8202024
:1019600000F062F900F0EEF84C2000F00AF900F007
:1019700037F800F031F800F067F87CBC5DF814FB34
:101980009C00002000000020020003480189C0687C
:1019900000D00122FEF7EEBD000000200200034847
:1019A000C188C06800D00122FEF7E4BD000000201D
:1019B00010B51D2000F088F820F004011D2000F073
:1019C00065F900211C2000F061F902490020C8706F
:1019D00010BD000000000020FF21E22000F056B9F9
:1019E000FF21E12000F052B9072000F06DB800009F
:1019F0007FB504001248134D06D0062C1ED8022CC9
:101A000007D2005D052206E0DDE90212C5E90412F5
:101A1000F7E7005D012202A900F050F90848A97813
:101A2000801F005D00F032F9022000F04DF8012126
:101A3000A1400843C1B2022000F028F97FBD000098
:101A4000863100080000002010B5002000F03CF8AE
:101A500020F00201BDE81040002000F017B910B5D9
:101A600000F010F8172000F02FF800F00104FFF745
:101A7000B3FF602000F028F80CB1012010BD002059
:101A800010BD000038B505460D4884788C4200D959
:101A90000C460020FFF782FF61208DF800006423D0
:101AA000012269460748FFF7ABF96423224629461D
:101AB0000448FFF7FDF80120FFF770FF38BD000074
:101AC000000000209C00002038B504460020FFF7ED
:101AD00065FF04F01F008DF80000642301226946B1
:101AE0000848FFF78DF96423012206480DF1010132
:101AF000FFF7DEF89DF801400120FFF74FFF204679
:101B000038BD00009C000020F8B5044615460E467E
:101B10000020FFF743FF04F01F008DF8000064234E
:101B2000012269460648FFF76BF964232A463146CD
:101B30000348FFF7BDF80120FFF730FFF8BD0000B4
:101B40009C0000207021072000F0A0B808B13F21C0
:101B500000E00021012000F099B810B504460020F3
:101B6000FFF7B2FF20F00C011CB1012C06D041F0B0
:101B70000C01BDE81040002000F088B841F00801D9
:101B8000F7E77F2800D37F200146052000F07EB8CC
:101B90002DE9F04107464FF000080620FFF794FFBB
:101BA000114D002620F028046E71022F0ED0012F57
:101BB00010D06E712146062000F068F80620FFF76D
:101BC00083FFA0420BD14FF0010809E06E7144F091
:101BD0002004EFE70120687144F00804EAE76E7121
:101BE0004046BDE8F08100000000002010B504462A
:101BF0000620FFF769FF20F00601032C0DD0022C10
:101C000005D0012C06D054B1042C06D007E041F0D9
:101C1000040104E041F0020101E041F00601BDE8E9
:101C20001040062000F032B8202800D320200149BF
:101C3000887070470000002000F00F0060F31F1153
:101C4000042000F023B8000010B50020FFF73CFF8F
:101C500040F00301002000F019F80B49D1E904011C
:101C6000084305D00849052210310A2000F026F863
:101C7000FFF7B6FEFFF7B0FE0120FFF785FEBDE8D7
:101C800010400120FEF786BB0000002038B5054655
:101C90000C460020FFF782FE45F020008DF8000082
:101CA0008DF801406423022269460348FFF7A8F833
:101CB0000120FFF773FE38BD9C000020F8B50446F4
:101CC00015460E460020FFF769FE44F020008DF80F
:101CD00000006423012269460648FFF791F8642357
:101CE0002A4631460348FFF78BF80120FFF756FEDE
:101CF000F8BD00009C0000200907090E002806DA44
:101D000000F00F0000F1E02080F8141D704700F192
:101D1000E02080F800147047704738B50B460092F9
:101D200004460022802100F008F8002804D0606DED
:101D300040F020006065032038BD2DE9F0411D46CC
:101D400017460E460446DDF8188035E0681C33D08F
:101D50002DB1FEF715FCA0EB0800A8422CD320689B
:101D6000416821F0E00141606068B0F5827F0BD1ED
:101D7000A068B0F5004F02D0B0F5806F04D12068A4
:101D8000016821F040010160A06AB0F5005F0AD14E
:101D9000206801684DF6FF721140016020680168FB
:101DA00041F400510160012084F85100002084F8C2
:101DB00050000320BDE8F0812068806836EA00000A
:101DC00004D00020B842C1D10020F3E70120F9E798
:101DD0007047FEF7DBBB30B58FB028216846FEF7B1
:101DE000CAF914210AA8FEF7C6F9022401200490BA
:101DF00000941020059000254FF46010CDE90850A4
:101E000007946846FEF758FD0AA90F2081E83100C3
:101E10006002CDE90D0502210AA8FEF741FC0FB0D2
:101E200030BD00000D48016841F0010101604168CA
:101E30000B4A1140416001680A4A11400160016883
:101E400021F480210160416821F4FE0141604FF4DA
:101E50001F0181600449C003086070470010024000
:101E60000000FFF8FFFFF6FE08ED00E0F0B50268A5
:101E7000164B174C174D4FF08047984205D0B8428B
:101E800003D0A04201D0A84203D122F070064A68D4
:101E90003243984205D0B84203D0A04201D0A842B4
:101EA00003D122F44074CA68224322F080044A69B4
:101EB000224302608A68C2620A688262984201D143
:101EC0000969016301214161F0BD0000002C01405E
:101ED000000400400008004010B50123046A8B4054
:101EE0009C430462036A8A401343036210BD0000EE
:101EF00030B5026A22F001020262026A4368846914
:101F000024F073050C682C4322F002058A682A43EA
:101F10000A4DA8420BD122F00805CA6823F4407389
:101F20002A434D6922F004021D438B692B43436011
:101F3000846149684163026230BD0000002C0140A9
:101F400030B5026A22F010020262026A43688469B4
:101F50000D6824F4E64444EA05248D6822F020024A
:101F600042EA05120B4DA8420ED1CD6822F0800244
:101F700042EA05124D6923F4406343EA85038D6903
:101F800022F0400243EA850343608461496881632B
:101F9000026230BD002C014030B5026A22F480722A
:101FA0000262036A4268C46923F4007324F0730573
:101FB0000C682C438D6843EA05230C4DA8420ED1D2
:101FC000CD6823F4006343EA05234D6922F44052AF
:101FD00042EA05128D6923F4806342EA05124260E9
:101FE000C4614968C163036230BD0000002C014038
:101FF00030B5026A22F480520262046A4268C36900
:102000000D6823F4E64343EA05238D6824F4005465
:1020100044EA0534064DA84204D14D6922F48042B9
:1020200042EA85124260C36149680164046230BDBE
:10203000002C01402DE9F041044600680169E26886
:1020400021F44051114301612169A068084361698D
:1020500008432168CA6841F20C639A430243CA608C
:1020600020684169A26921F44071114341614C49E2
:1020700020686425322688423CD1FEF7D7FB00EB6E
:10208000C00101EB001061688900B0FBF1F7FEF7B9
:10209000CDFB00EBC00101EB00106168B046890088
:1020A000B0FBF1F0B0FBF5F06FF01801484307EB1F
:1020B000800106EB0110B0FBF5F000F0F006FEF732
:1020C000B5FB00EBC00101EB001061688900B0FBBB
:1020D000F1F0B0FBF5F006EB0016FEF7A7FB00EB06
:1020E000C00101EB001061688900B0FBF1F7FEF759
:1020F0009DFB3BE0FEF78AFB00EBC00101EB00100B
:1021000061688900B0FBF1F7FEF780FB00EBC001CE
:1021100001EB00106168B0468900B0FBF1F0B0FB44
:10212000F5F06FF01801484307EB800106EB011052
:10213000B0FBF5F000F0F006FEF768FB00EBC00125
:1021400001EB001061688900B0FBF1F0B0FBF5F025
:1021500006EB0016FEF75AFB00EBC00101EB001086
:1021600061688900B0FBF1F7FEF750FB00EBC0019E
:1021700001EB001061688900B0FBF1F0B0FBF5F0F5
:102180006FF01801484307EB800108EB0110B0FB2A
:10219000F5F0216800F00F0030448860BDE8F08160
:1021A000003801402DE9F041984617460E46044696
:1021B000069D1DE0681C1BD02DB1FEF7E1F9A0EBD8
:1021C0000800A84214D92068C16821F4D071C16008
:1021D0002068416921F001014161202084F8390023
:1021E00084F83A00002084F838000320BDE8F0812C
:1021F0002068006836EA000004D00020B842D9D038
:102200000020F3E70120F9E7FEE700000FB4084BD8
:1022100010B504A902AA039800F020F8044602A908
:10222000002000F04CFA204610BC5DF814FB0000C2
:10223000BF260008004870479800002002E008C848
:10224000121F08C1002AFAD170477047002001E030
:1022500001C1121F002AFBD1704700002DE9FF4F7A
:102260008DB00F460546002606E025280BD0DDE997
:102270000F1290476D1C761C28780028F5D111B0FC
:102280003046BDE8F08F0024A246A1460122EC4969
:1022900000E0044315F8013F203B02FA03F0084236
:1022A000F7D128782A2810D06FF02F022878A0F1D3
:1022B0003001092914D80AEB8A0102EB410144F0EC
:1022C000020400EB010A6D1CF0E701CF5FEA000A8F
:1022D00003D544F40054CAF1000A44F002046D1C12
:1022E00028782E2817D115F8010F44F004042A2865
:1022F0000ED06FF02F022878A0F1300109290AD8FA
:1023000009EB890102EB410100EB01096D1CF2E7C9
:1023100057F8049B6D1C28786C280FD006DC4C28DD
:1023200017D068280DD06A2814D104E0742810D082
:102330007A280FD10DE044F400140AE044F480142C
:1023400001E044F440146978814202D104F580141C
:102350006D1C6D1C2A786E2A1FD00CDC632A31D0CC
:1023600004DC002A8BD0582A11D1A3E0642A68D05B
:10237000692A0CD165E0732A2ED004DC6F2A73D051
:10238000702A04D19BE0752A6FD0782A6ED010464F
:10239000DDE90F129047761C50E1C4F30250022889
:1023A00006D0032809D0042801CF09D0066045E1F2
:1023B00001CFF117C0E9006140E101CF06803DE1A6
:1023C00006703BE117F8040B8DF8000000208DF833
:1023D0000100EB46012003E057F804BB4FF0FF304B
:1023E00061074FF0000102D40DE008F101018846B9
:1023F00049450FDA8045F8DB1BF808100029F4D1B5
:1024000008E008F1010188468142FADB1BF8081058
:102410000029F6D1DDE90F23AAEB08008146214609
:1024200000F036F9304400EB080604E0DDE90F1255
:102430001BF8010B9047B8F10108F7D22146484636
:10244000F7E00A21C4F302534FF0000B0891022B6E
:1024500004D001CFC117032B09D00AE0FF1D27F0DC
:102460000707F7E8020108E032E01FE020E000B2D1
:10247000C117042B01D140B2C117031E71F1000333
:1024800007DA4FF0000CD0EB0C006CEB01012D23B0
:1024900002E0230504D52B238DF82430012303E02B
:1024A000E30701D02023F7E7984658E00A2110E01F
:1024B00010210EE010204FF0000B08900CE01021CE
:1024C0004FF0000B44F004044FF00809089103E0BA
:1024D00008214FF0000B0891C4F30253022B04D0E3
:1024E00001CF0021032B06D006E0FF1D27F00707D0
:1024F000F7E8020103E080B2042B00D1C0B24FF034
:10250000000823072BD5702A07D0DDF820C08CF0F7
:10251000100C5CEA0B0C05D00EE040238DF8243043
:10252000012308E050EA010306D030238DF824305F
:102530008DF8252002239846DDF820C08CF0080C89
:102540005CEA0B0C0BD150EA010301D1630706D5FD
:1025500030238DF824304FF00108A9F10109582AE1
:1025600004D038A20B9208AA0A920BE03AA2F9E72B
:102570005B46089AFDF71EFE0B9B9B5C0A9A521E57
:102580000A92137050EA0102F2D10A98ADEB0000F2
:1025900000F1200B600702D524F4803401E04FF0F5
:1025A0000109D94502DDA9EB0B0000E0002000EB9A
:1025B0000B0141440890AAEB010AE00306D4DDE9CF
:1025C0000F232146504600F063F806444FF00009FF
:1025D00008E009A911F80900DDE90F12904709F197
:1025E0000109761CC145F4DBE0030CD5DDE90F23BE
:1025F0002146504600F04CF8064404E0DDE90F1295
:1026000030209047761C0899481E08900029F5DC78
:1026100008E00A980A990078491C0A91DDE90F122E
:102620009047761CBBF10001ABF1010BF1DC2146B8
:102630005046DDE90F2300F019F806446D1C1BE637
:102640000928010030313233343536373839616288
:10265000636465660000000030313233343536374C
:102660003839414243444546000000002DE9F0411D
:10267000044600251E461746880404D405E0394662
:102680002020B0476D1C641EF9D52846BDE8F081B6
:102690002DE9F041044600251E469046C80301D5A9
:1026A000302700E02027880404D505E0414638465D
:1026B000B0476D1C641EF9D52846BDE8F0810A6854
:1026C000531C0B6010707047B4B0FDF767FFFFF745
:1026D00082FBFEF765FFFEF7CBFFFEF7E5FF954DAA
:1026E00093480C2128604FF4E13068600020A86016
:1026F000E860C5E90401A861E8612846FEF788FEA4
:10270000FFF718F83622A5F1D80115A8FDF71AFD34
:10271000A5F1D806F08EADF88A00B06B2390B08F8B
:10272000ADF89000F08FADF892001122A5F198015C
:1027300025A8FDF707FD96F851008DF8A500706DEE
:102740002A90542216A96846FDF7FCFC4FF400724B
:1027500051107948159BFFF751F8262229460CA8FD
:10276000FDF7F0FCE88CADF8560005F12800016893
:1027700016918088ADF85C00E88DADF85E00092206
:1027800005F1300118A8FDF7DDFC95F839008DF84A
:10279000690095F83A008DF86A00E86B1B903022CA
:1027A00010A96846FDF7CEFC0DF1300C9CE80F0037
:1027B00000F0F2F800F0FCF80021A5F18000FEF72F
:1027C0000FFE0021A5F14000FEF70AFE0020FFF7F2
:1027D000BDF93420FFF7D5F92020FFF725FA574D32
:1027E0000120D5E90223FFF703F9FFF72DFA06F1DF
:1027F0005808534E08F14007641CFEF7E3FF18B178
:1028000020212BA8FFF72BF92BA8FDF7C6FC288069
:10281000E043C007B5F900003DD000286DDA2888F4
:102820004042A8804FF496700090022340F2FF329D
:102830004FF4D771B5F9040000F09CF8E880B5F9C1
:1028400004203E483FA13030FFF7E0FCB5F90620F8
:102850003A483FA15030FFF7D9FC38483030FDF7F7
:1028600095FC364982B20A2330313248FEF73AFEEF
:1028700032485030FDF78AFC304982B20A23503189
:102880002C48FEF72FFEB5F9040040F2EE218842F5
:102890003FDD962046E0002846DD642000230090BE
:1028A00040F6FF721946B5F9000000F063F8688041
:1028B000B5F9002021482AA11030FFF7A7FCB5F98F
:1028C0000200432806DA002201213046FDF752FEBD
:1028D000012209E0B5F9020053280FDD012211465B
:1028E0003046FDF747FE002202213046FDF742FE4A
:1028F000B5F90210D8F80000416315E0002201216B
:102900003046FDF737FE002202213046FDF732FE49
:102910000AE0B5F9040040F2A321884201DA02205E
:1029200000E03220396848631E20FDF733FD63E77D
:10293000004400400C020020000C01401800002060
:10294000000801400C20796F6E202564200A0D00DC
:102950000C20796F6E31202564200A0D00000000E4
:102960000C20696C6572692D676572692025642089
:102970000A0D000030B50446039894420BD0651A46
:10298000C41A511A834201DA641C00E0641E6543D4
:1029900095FBF1F0184430BD0FB4402210B502A9E8
:1029A0000248FDF7CFFB10BC5DF814FBF4000020DB
:1029B00010B5A0B0F4A104A8FFF728FC04A8FDF707
:1029C000E5FB82B20A2304A9FC48FEF78BFD002038
:1029D000FFF77AF801077AD5400701D5F8A100E0A2
:1029E000FEA104A8FFF712FC04A8FDF7CFFB82B2FA
:1029F0000A2304A9F148FEF775FD0120FFF764F8EA
:102A0000C0F34014C0F30013C0F3C002C0F3800150
:102A10008DE81E0000F00102C0F34003F64904A84F
:102A2000FFF7F4FB04A8FDF7B1FB82B20A2304A967
:102A3000E248FEF757FD0220FFF746F8C0F34014C6
:102A4000C0F30013C0F3C002C0F380018DE81E0084
:102A500000F00102C0F34003E84904A8FFF7D6FBE9
:102A600004A8FDF793FB82B20A2304A9D348FEF71A
:102A700039FD0320FFF728F800F00302E0A104A8C5
:102A8000921CFFF7C3FB04A8FDF780FB82B20A2368
:102A900004A9CA48FEF726FD0520FFF715F800F047
:102AA0007F02DEA104A8FFF7B1FB04A8FDF76EFBCF
:102AB00082B20A2304A9C148FEF714FD0620FFF7DD
:102AC00003F80446000704D5D9A103E0FFE7DEA11F
:102AD00087E7E2A104A8FFF799FB04A8FDF756FBDE
:102AE00082B20A2304A9B548FEF7FCFC032010EAD1
:102AF000540006D0012806D0022806D0032806D0AC
:102B000009E0DCA104E0E0A102E0E4A100E0E8A12A
:102B100004A8FFF77BFB04A8FDF738FB82B20A2369
:102B200004A9A648FEF7DEFC05221DA90A20FEF72F
:102B3000EBFF9DF876009DF874209DF875108DE8E8
:102B400007009DF877309DF87820DEA104A8FFF7F4
:102B50005DFB04A8FDF71AFB82B20A2304A997487B
:102B6000FEF7C0FC05221DA90B20FEF7CDFF9DF846
:102B700076009DF874209DF875108DE807009DF88B
:102B800077309DF87820DBA104A8FFF73FFB04A86D
:102B9000FDF7FCFA82B20A2304A98848FEF7A2FCDA
:102BA00001221DA90C20FEF7AFFF9DF87420DDA1C6
:102BB00004A8FFF72BFB04A8FDF7E8FA82B20A236A
:102BC00004A97E48FEF78EFC01221DA90D20FEF708
:102BD0009BFF9DF87420DDA104A8FFF717FB04A854
:102BE000FDF7D4FA82B20A2304A97448FEF77AFCEE
:102BF00001221DA90E20FEF787FF9DF87420DDA19C
:102C000004A8FFF703FB04A8FDF7C0FA82B20A2369
:102C100004A96A48FEF766FC01221DA90F20FEF7F1
:102C200073FF9DF87420DDA104A8FFF7EFFA04A854
:102C3000FDF7ACFA82B20A2304A96048FEF752FC01
:102C400005221DA91020FEF75FFF9DF876009DF874
:102C500074209DF875108DE807009DF877309DF879
:102C60007820D8A104A8FFF7D1FA04A8FDF78EFABE
:102C700082B20A2304A95148FEF734FC1120FEF762
:102C800023FF00F03F02DAA104A8FFF7BFFA04A86F
:102C9000FDF77CFA82B20A2304A94848FEF722FC19
:102CA0001220FEF711FF00F03F02D8A104A8FFF7A1
:102CB000ADFA04A8FDF76AFA82B20A2304A93F48D4
:102CC000FEF710FC1320FEF7FFFE00F03F02D6A136
:102CD00004A8FFF79BFA04A8FDF758FA82B20A236A
:102CE00004A93648FEF7FEFB1420FEF7EDFE00F0C7
:102CF0003F02D4A104A8FFF789FA04A8FDF746FA19
:102D000082B20A2304A92D48FEF7ECFB1520FEF73A
:102D1000DBFE00F03F02D2A104A8FFF777FA04A877
:102D2000FDF734FA82B20A2304A92448FEF7DAFB3D
:102D30001620FEF7C9FE00F03F02D0A104A8FFF75D
:102D400065FA04A8FDF722FA82B20A2304A91B48F7
:102D5000FEF7C8FB1C20FEF7B7FEC0F34014C0F31B
:102D60000013C0F3C002C0F380018DE81E0000F024
:102D70000102C0F34003C84904A8FFF747FA04A8BA
:102D8000FDF704FA82B289E10D0A2A2A2A2A2A2AA0
:102D90002A2A2A2A2A2A2A2A2A2A2A2A2A2A2A2A93
:102DA0002A2A2A2A2A2A2A2A2A2A2A2A2A2A2A2A83
:102DB0002A2A2A2A2A2A2A2A0D0A0000F400002098
:102DC0004352433A0D0A0909456E61626C65642CF1
:102DD0002032204279746573200D0A004352433A31
:102DE0000D0A0909456E61626C65642C2031204230
:102DF000797465200D0A00002C320008703200083A
:102E000053455455505F41573A0D0A09092564202E
:102E10006279746573200D0A0000000052465F431A
:102E2000483A0D0A09092564204348200D0A00008C
:102E30004461746120526174653A0D0A0909324D8A
:102E4000627073200D0A00004352433A0D0A0909CB
:102E500044697361626C6564200D0A0044617461A9
:102E600020526174653A0D0A0909314D6270732070
:102E70000D0A000052465F5057523A0D0A09092DBB
:102E800031386442200D0A0052465F5057523A0DC5
:102E90000A09092D31326442200D0A0052465F5062
:102EA00057523A0D0A09092D366442200D0A0000D6
:102EB00052465F5057523A0D0A0909306442200DBC
:102EC0000A00000052585F50697065302041646408
:102ED00072733A0D0A0909253032582C25303258C0
:102EE0002C253032582C253032582C2530325820A1
:102EF000200D0A0052585F506970653120416464AA
:102F000072733A0D0A0909253032582C253032588F
:102F10002C253032582C253032582C253032582070
:102F2000200D0A0052585F50697065322041646478
:102F300072733A0D0A090978782C78782C78782CF5
:102F400078782C2530325820200D0A0052585F50D6
:102F5000697065332041646472733A0D0A09097817
:102F6000782C78782C78782C78782C25303258206A
:102F7000200D0A0052585F50697065342041646426
:102F800072733A0D0A090978782C78782C78782CA5
:102F900078782C2530325820200D0A0052585F5086
:102FA000697065352041646472733A0D0A090978C5
:102FB000782C78782C78782C78782C25303258201A
:102FC000200D0A0054582041646472733A0D0A09B6
:102FD00009253032582C253032582C253032582CC7
:102FE000253032582C2530325820200D0A000000A0
:102FF00052585F50575F50303A0D0A090925642036
:103000006279746573200D0A0000000052585F5009
:10301000575F50313A0D0A090925642062797465B9
:1030200073200D0A0000000052585F50575F503265
:103030003A0D0A09092564206279746573200D0A26
:103040000000000052585F50575F50333A0D0A0994
:10305000092564206279746573200D0A0000000060
:1030600052585F50575F50343A0D0A0909256420C1
:103070006279746573200D0A0000000052585F5099
:10308000575F50353A0D0A09092564206279746545
:1030900073200D0A00000000BC3200080A2304A9B6
:1030A0001C48FEF71FFA1D20FEF70EFD04464007E0
:1030B00001D519A100E01EA104A8FFF7A7F804A8F4
:1030C000FDF764F882B20A2304A91248FEF70AFA4F
:1030D000A00701D51CA100E022A104A8FFF796F8E3
:1030E00004A8FDF753F882B20A2304A90948FEF7A1
:1030F000F9F9AFF26C3104A8FFF788F804A8FDF7DE
:1031000045F882B20A2304A90248FEF7EBF920B081
:1031100010BD0000F4000020454E5F44504C3A0DB5
:103120000A0909456E61626C6564200D0A000000A1
:10313000454E5F44504C3A0D0A0909446973616277
:103140006C6564200D0A0000454E5F41434B5F50A3
:1031500041593A0D0A0909456E61626C6564200D9A
:103160000A000000454E5F41434B5F5041593A0D04
:103170000A090944697361626C6564200D0A0000E4
:103180001112131415160A0B0C0D0E0F100000006F
:103190000000000000010203040607080900000007
:1031A0000001020304004040404040404040404194
:1031B000414141414040404040404040404040400B
:1031C0004040404040400502020202020202020268
:1031D00002020202020220202020202020202020A3
:1031E0000202020202020290909090909010101041
:1031F00010101010101010101010101010101010CF
:10320000100202020202028888888888880808085A
:10321000080808080808080808080808080808082E
:103220000802020202400000A6310008454E41415A
:103230003A0D0A090950303A0925640D0A09095066
:10324000313A0925640D0A090950323A0925640DFD
:103250000A090950333A0925640D0A090950343A1C
:103260000925640D0A090950353A0925640D0A003B
:10327000454E5F5258414444523A0D0A09095030B4
:103280003A0925640D0A090950313A0925640D0AE5
:10329000090950323A0925640D0A090950333A09DF
:1032A00025640D0A090950343A0925640D0A0909F3
:1032B00050353A0925640D0A0000000044594E506B
:1032C000445F706970653A0D0A090950303A092562
:1032D000640D0A090950313A0925640D0A0909509B
:1032E000323A0925640D0A090950333A0925640D5B
:1032F0000A090950343A0925640D0A090950353A7A
:103300000925640D0A000000283300080000002091
:103310009C0000003C220008C43300089C000020F0
:10332000B40500004C22000800000000000000006E
:10333000000000000000000000000000000000008D
:103340000000000000000000AA4433221100000029
:10335000200000000000000000000000000000004D
:10336000000000000000000000000000000000005D
:10337000200000000000000000000000000000002D
:10338000000000000000000000000000000000003D
:10339000200000000000000000000000000000000D
:1033A000000000000000000000000000000000001D
:1033B00001000000100000000000000000A24A040C
:0433C0000000000009
:04000005080000ED02
:00000001FF
